:020000040800F2
:1000000098FB01208902000831BA000833BA0008C1
:1000100035BA000837BA000839BA000800000000F5
:100020000000000000000000000000003BBA0008D3
:100030003DBA000800000000533E0108F1B300087B
:10004000A3020008A3020008A3020008AB9700085F
:10005000A3020008A3020008A3020008A3020008EC
:10006000A3020008A3020008A3020008A3020008DC
:10007000A3020008A3020008A3020008A3020008CC
:10008000A3020008A3020008A3020008A3020008BC
:100090004BB10008A3020008A3020008A302000855
:1000A000A3020008A3020008A3020008A30200089C
:1000B000A3020008A3020008B7C10008A3020008B9
:1000C000A3020008A3020008A3020008A30200087C
:1000D000A302000895B50008A3020008A9B600080D
:1000E000A302000883970008A3020008A3020008E7
:1000F000A3020008A3020008A3020008A30200084C
:10010000A3020008A3020008A3020008A30200083B
:10011000A302000883AF0008A3020008A30200089E
:10012000A3020008A3020008A3020008A30200081B
:10013000A3020008A3020008A3020008A30200080B
:10014000A3020008A3020008A3020008A3020008FB
:10015000A3020008A3020008A3020008A3020008EB
:10016000A3020008A3020008A3020008A3020008DB
:10017000A3020008A3020008A3020008A3020008CB
:10018000A3020008A302000800F002F800F06DF8D6
:100190000AA090E8000C82448344AAF10107DA45E2
:1001A00001D100F062F8AFF2090EBAE80F0013F0C7
:1001B000010F18BFFB1A43F001031847B4AC03004A
:1001C000D4AC03000A444FF0000C10F8013B13F0CC
:1001D000070408BF10F8014B1D1108BF10F8015BA0
:1001E000641E05D010F8016B641E01F8016BF9D193
:1001F00013F0080F1EBF10F8014BAD1C0C1B09D1EA
:100200006D1E58BF01F801CBFAD505E014F8016B5B
:1002100001F8016B6D1EF9D59142D6D370470000ED
:100220000023002400250026103A28BF78C1FBD8FF
:10023000520728BF30C148BF0B607047642913F0D4
:10024000E181752913F0DE81782913F01782632983
:1002500013F04D85732913F05285002070471FB5A8
:100260002DF0DFFD1FBD10B510BD13F0A9FD114627
:10027000FFF7F5FF0BF028FB13F0C7FD03B4FFF702
:10028000F2FF03BC0BF028F90948804709480047F2
:10029000FEE7FEE7FEE7FEE7FEE7FEE7FEE7FEE736
:1002A000FEE7FEE704480549054A064B7047000093
:1002B000E3BA00088901000898F5012098FB0120A5
:1002C00098F7012098F701202DE9FC410446012010
:1002D0008DF8040000218DF8061003218DF805101B
:1002E0008DF80700724EA4F11E00704F06EB440516
:1002F00002280AD20121202000F0E7FD35F8220C67
:1003000000906946384600F0C7FBA4F119000528A3
:100310000AD20121202000F0D8FD35F8240C0090ED
:100320006946384600F0B8FBA4F1100009280AD24B
:100330000121402000F0C9FD35F8200C00906946ED
:100340005C4800F0A9FBA4F10A0006280AD20121AA
:10035000042000F0BAFD35F8140C009069465648A8
:1003600000F09AFB082C01D0092C0AD101210220AF
:1003700000F0ABFD35F8100C009069464F4800F0D6
:100380008BFB082C0ADA0121084600F09EFD36F8A6
:100390001400009069464A4800F07EFBBDE8FC81ED
:1003A000F0B5054601218DB0084600F08EFD012113
:1003B0000F02384600F0B1FD03208DF80400002440
:1003C0003B488DF8074000EB4506082D07DA30F86A
:1003D0001500009069463A4800F05EFB00E001D04D
:1003E000092D06D136F8100C00906946334800F00C
:1003F00053FB0A3D062D06D236F8140C00906946D0
:100400002D4800F049FB0121384600F0B8FD0021DD
:10041000384600F0B4FD08944FF480300B94CDE9D9
:10042000090408A802F021FB8DF80C4002948DF815
:100430000D40049406940120224C8DF81C0002A962
:10044000204602F0E7FA0121204602F025FB0DB01C
:10045000F0BD10B51B4C014607230122204602F0D7
:100460004EFB204602F085FB0221204602F049FCAB
:100470000028F9D02046BDE8104002F0ACBB2DE9C1
:10048000F04100250E4607462C4608E03846FFF7A7
:10049000E0FF054405200AF0F9FF641CE4B2B44211
:1004A000F4D3B5FBF6F080B2BDE8F0810014024051
:1004B00036DE020800180240000802400004024034
:1004C00000000240002001402849084328490860F4
:1004D000704730B50F22C47801780123FCB1244C59
:1004E000246801F1E02104F4E064C4F5E064C4F39D
:1004F0000724C4F10405E2404478AC4085781540F7
:1005000025432A0181F80024007800F01F018B4068
:100510004009800000F1E020C0F8003130BD01F05A
:100520001F0083404809800000F1E020C0F88031BE
:1005300030BD104A114001430D48001F0160704753
:100540000B4A121D0029116801D0014300E08143CC
:10055000116070474FF0E0210428086903D020F0B3
:1005600004000861704740F00400FAE70000FA0553
:100570000CED00E080FFFF1F8100A1F1C04148B1F8
:1005800043F2D200C1F800006FF070404860C1F83B
:10059000040170474FF0204243F2DB001060F3E7A4
:1005A00010B5D0E901121143D0E903231A431143D6
:1005B0004269114382691143C2691143026A1143BE
:1005C000426A1143826A1143C26A1143026B1143AA
:1005D00002689200A2F1C04211608168082907D127
:1005E00001688900A1F1C0410A6842F040020A6036
:1005F000416BD1E9002342EA03128B688C891B020C
:1006000043EA04431A430B8A42EA03520B7D896989
:1006100042EA03620A4301688900A1F1C0414A60CD
:10062000C16AB1F5804F08D000686FF0704180005A
:10063000A0F1C040C0F8041110BD816BD1E90023C6
:1006400042EA03128B680C8A1B0243EA04531A43E2
:100650000B7D896942EA036200680A438000A0F1C9
:10066000C040C0F8042110BD00210222C0E90012E0
:100670008160C160016141618161D202C161C0E9F3
:1006800008125200C0E90A210163CB49416381632A
:1006900070478000A0F1C0400029016802D041F0FD
:1006A000010101E0C54A11400160704710B51824EE
:1006B00040234FF020414FF0FC32102805D041F884
:1006C000804F4B608A60CA6010BD0C664B668A66BC
:1006D000CA6610BD30B5D0E901121143D0E9032339
:1006E0001A431143426941EA4221826941EA423197
:1006F000C26941F00804D2E9001341EA03211389D9
:10070000127B1B0443EA0262036A1143D3E900250A
:1007100042EA05221D891B7B2D0445EA03631A4327
:1007200003684FF02040102B04D040F8804F8160C8
:10073000C26030BD04668166C26630BD10210160B2
:10074000002141608160C160016141618161C269D4
:10075000FC211160C2695160C2699160C269D160B7
:10076000026A1160026A5160026A9160006AC160A7
:1007700070474FF0204251B1102804D052F8800F3A
:1007800040F004000AE0106E40F004000AE08B49DB
:10079000C91E102804D052F8800F0840106070471E
:1007A000106E0840106670474FF0204251B110287B
:1007B00004D052F8800F40F040000AE0106E40F084
:1007C00040000AE07D493F39102804D052F8800FDC
:1007D000084010607047106E0840106670474FF078
:1007E0002041102802D0D1F894007047486F70471C
:1007F0004FF02040182140F8A01F002141604FF029
:10080000FC318160C1600161704710B5D0E9001210
:1008100041EA42228168102343EA41310A434FF002
:10082000204141F8A02FC268D2E9003443EA0423F2
:100830001489127B240444EA026213438B60026928
:10084000D2E9003443EA04231489127B240444EAE5
:1008500002621343CB604069D0E9002342EA0322DD
:100860000389007B1B0443EA006002430A6110BD58
:100870000021016041608160C268FC211160C26892
:100880005160C2689160C268D160026911600269FA
:100890005160026991600269D160426911604269E8
:1008A0005160426991604069C16070474FF02041DA
:1008B000002851F8A00F02D040F0040002E03F4AA7
:1008C000D21E10400860704710B54FF480744FF08E
:1008D000204372B1102804D0A04205D153F8840FF0
:1008E00004E0586E08430DE053F8A40F0843186065
:1008F00010BD102804D0A04206D153F8840F05E0A3
:10090000586E8843586610BD53F8A40F8843EEE72D
:10091000034600204FF02042102B08D0B3F5807F13
:1009200007D0D2F8A4200A4200D001207047526EAE
:10093000F9E7D2F88420F6E74FF02042102807D0DC
:10094000B0F5807F08D052F8A40F8843106070473C
:10095000506E88435066704752F8840FF5E703469F
:1009600000204FF02042102B0CD0B3F5807F0BD02D
:10097000D2F8A4200A4202EAD10102D0002900D014
:1009800001207047526EF5E7D2F88420F2E74FF06D
:100990002042102808D0B0F5807F0AD052F8A40F6A
:1009A00020EAD10010607047506E20EAD1005066F6
:1009B000704752F8840FF3E758DE0208FEFF0F007D
:1009C000824910B5884206D10121084600F0AFFAED
:1009D000002101205BE07E49884206D101210220EE
:1009E00000F0A5FA0021022051E07A49884206D1A0
:1009F0000121042000F09BFA0021042047E0764901
:100A0000884206D10121082000F091FA0021082037
:100A10003DE07249884206D10121102000F087FA9A
:100A20000021102033E06E49884206D101212020A8
:100A300000F07DFA0021202029E06A49884206D191
:100A40000121402000F073FA002140201FE0664998
:100A5000884206D10121802000F069FA002180201F
:100A600015E06249884202D1012184150AE06049FB
:100A7000884202D10121441504E05E4988420AD12E
:100A800001210415204600F052FA00212046BDE85D
:100A9000104000F04CBA10BDF0B50023012403272C
:100AA0000D6804FA03F21540954242D1D0F800C017
:100AB0005E0007FA06F52CEA050CC0F800C091F8B4
:100AC00004C0D0F800E00CFA06FC4CEA0E0CC0F8AA
:100AD00000C091F804C0BCF1010F02D0BCF1020FBC
:100AE0001FD1D0F808C02CEA050CC0F808C091F856
:100AF00005C0D0F808E00CFA06FC4CEA0E0CC0F871
:100B000008C0D0F804C02CEA020CC0F804C0426847
:100B100091F806C00CFA03FC1FFA8CFC42EA0C02A6
:100B20004260C268AA43C260CA79C568B2402A431B
:100B3000C2605B1C102BB3D3F0BD4FF6FF71016098
:100B40000021017141718171C171704708B541F493
:100B500080320092C261C1610099C161C169C069FE
:100B6000009008BD0246002012690A4200D0012010
:100B70007047006980B270470246002052690A42FD
:100B800000D001207047406980B2704701837047F0
:100B9000418370470AB101837047418370474161C7
:100BA000704742694A40426170474B07DB0E9A40EA
:100BB000C90810B500EB8100016A0F249C40A143D5
:100BC0000162016A1143016210BD00000000024091
:100BD0000004024000080240000C024000100240E5
:100BE0000014024000180240001C02400020024095
:100BF0000024024000280240F848016841F0010149
:100C00000160F64A0021083211600268F44B1A4074
:100C10000260031DF34A1A60F04BF34A84331A60F2
:100C2000F04A103A1B1D1A60026822F4802202600A
:100C3000EA480C300160181D01607047E749002246
:100C4000891C0A700870704702460020510901296A
:100C50000CD002290CD0E1497431096802F01F025E
:100C6000012393400B4200D001207047DB49F4E799
:100C7000DA497031F1E718B500204FF4A044009034
:100C80003120FFF7E1FF0099491C0091A14201D0FA
:100C90000028F5D03120FFF7D7FF002800D0012031
:100CA00018BDCE490A6822F0F80242EAC000086086
:100CB0007047CE4908607047C849002270310A70F9
:100CC0000A70012802D0042801D10520087070475D
:100CD000C7490860704741EA82115A0810B5C54BF0
:100CE000029C03EB02421143014341EA0460BB4909
:100CF000091D086010BDBD4908667047800140EAC3
:100D00000170B649843108607047B84988667047F9
:100D1000800140EA0160B14940EA02708831086010
:100D20007047B24908677047B049C8647047AB4A1A
:100D300008321368084323F0EC63184310607047CF
:100D4000A64A08321368084323F07843184310601A
:100D50007047A24A0832116821F003010143116073
:100D600070479E480830006800F00C0070479B4AAE
:100D70000832116821F0F001014311607047974A71
:100D80000832116821F4E051014311607047934922
:100D900008310A6822F4604242EAC00008607047E5
:100DA00070B58E4A08321168934C11F00C0104D0D2
:100DB0006610042903D0082903D004601BE00660F4
:100DC00019E08649091D0B68C3F380550B6803F0D1
:100DD0003F0315B1B6FBF3F301E0B4FBF3F30C688A
:100DE0000968C4F388146343C1F30141491C4900F5
:100DF000B3FBF1F1016011680F2303EA11117F4B7E
:100E00005C5C0168E14041601468072505EA9424B0
:100E10001C5D21FA04F48460126805EA52329A5C7F
:100E2000D140C16070BDC0F30121032908D16B4AD4
:100E30000832116821F4F813714901401943116017
:100E4000664970310A68C0F30B0002430A607047BC
:100E50006749443908607047654940390860704700
:100E60006249C1F85C0170475C4A8C321168401ECF
:100E700021F01F0101431160704758498C310A6805
:100E80006FF0FF0322F4F85203EB002010430860D8
:100E90007047524A8C32116821F4401101431160AD
:100EA00070474E4A8C32116821F4400101431160B1
:100EB00070474A4A8C32116821F440310143116075
:100EC00070475049C1F8E0017047444A3032002968
:100ED000116801D0014300E08143116070473F4A2F
:100EE00034320029116801D0014300E081431160D0
:100EF00070473A4A38320029116801D0014300E0B6
:100F0000814311607047354A40320029116801D091
:100F1000014300E0814311607047304A44320029A8
:100F2000116801D0014300E08143116070472B4AF2
:100F300010320029116801D0014300E081431160A3
:100F40007047264A14320029116801D0014300E09D
:100F5000814311607047214A18320029116801D07D
:100F6000014300E08143116070471C4A2032002990
:100F7000116801D0014300E0814311607047174AB6
:100F800024320029116801D0014300E0814311603F
:100F90007047124A50320029116801D0014300E025
:100FA0008143116070470D4A54320029116801D005
:100FB000014300E0814311607047084A583200291C
:100FC000116801D0014300E0814311607047034A7A
:100FD00060320029116817D0014316E00038024042
:100FE000FFFFF6EA103000240030002000004742E6
:100FF000800E47420000FFFF0024F40000000020A4
:10100000FFFCFF0F00104742814311607047194AEF
:101010000029116801D0014300E08143116070474D
:1010200014490C310128086803D020F0080008603A
:10103000704740F00800FAE70E4A573A0029117845
:1010400001D0014300E0814311707047094810301E
:10105000016841F08071016070470146054A002037
:10106000583A12680A4200D00120704701495639A7
:101070000870704764380240FE4910B5884206D1B6
:1010800001210846FFF77BFF002101205BE0B0F162
:10109000804F09D0F84988420DD101210220FFF785
:1010A00064FF0021022070E001210846FFF75DFF88
:1010B0000021012069E0F149884206D10121042084
:1010C000FFF753FF002104205FE0ED49884206D17D
:1010D00001210820FFF749FF0021082055E0E949D8
:1010E000884206D101211020FFF73FFF0021102088
:1010F0004BE0E549884206D101212020FFF735FF6A
:101100000021202041E0E149884206D1012102204E
:10111000FFF735FF0021022015E0DD49884202D1AA
:1011200001210C040AE0DB49884202D101214C0470
:1011300004E0D94988420AD101218C042046FFF7F6
:101140001EFF00212046BDE81040FFF718BFD3491D
:10115000884206D101214020FFF707FF00214020EF
:1011600013E0CF49884206D101218020FFF7FDFE20
:101170000021802009E0CB4988420AD18415012151
:101180002046FFF7F2FE00212046BDE81040FFF7A1
:10119000ECBE10BD30B50288B64BBC4C98420DD0A9
:1011A000A0420BD0B0F1804F08D0B34DA84205D07B
:1011B000B24DA84202D0B24DA84203D122F0700530
:1011C0004A882A43AF4DA84206D0AF4DA84203D06B
:1011D00022F440750A892A4302804A68C2620A885A
:1011E0000285984201D0A04201D1897A018601216D
:1011F000818230BD4FF0FF314160002101800181CB
:10120000418081727047018582827047028822F096
:1012100070020A430280704741627047C1627047A2
:10122000406A7047008D70470029018802D041F064
:10123000020101E021F002010180704700290188CC
:1012400002D041F0040101E021F004010180704767
:101250000029018802D041F0800101E021F08001E5
:1012600001807047028822F00802028002880A4347
:1012700002807047028822F44072028002880A438A
:10128000028070470029018802D041F0010101E08D
:1012900021F001010180704730B5028C22F001027B
:1012A0000284028C8388048B22F0020224F07305EE
:1012B0000C882C438D8915434A882A436D4DA842DA
:1012C00002D0724DA8420DD122F00805CA8923F43C
:1012D00040732A4322F004058A882A430D8A1D435D
:1012E0004B8A2B438380048389684163028430BD29
:1012F00070B5028C22F010020284028C8488038B69
:101300000D8823F4E6464FF6FF7303EA05253543BF
:101310008E8922F0200203EA061616434A8803EA61
:1013200002123243534EB04202D0584EB04215D151
:1013300022F08006CA8924F4406403EA0212324390
:1013400022F040068A8803EA021232430E8A03EA38
:10135000860626434C8A03EA84043443848005834A
:1013600089688163028470BD70B5028C22F480723A
:101370000284028C8488838B0D8823F073031D43C1
:1013800022F400738E894FF6FF7202EA06261E438E
:101390004B8802EA03233343364EB04202D03B4E21
:1013A000B04215D123F40066CB8924F4405402EAFC
:1013B0000323334323F480668B8802EA03233343F9
:1013C0000E8A02EA061626434C8A02EA04143443C3
:1013D000848085838968C163038470BD70B5028C85
:1013E00022F480520284048C8288838B0D8823F43B
:1013F000E6464FF6FF7303EA0525354324F400560D
:101400008C8903EA043434434E8803EA06362643C3
:10141000184CA04202D01D4CA04205D122F48044B9
:101420000A8A03EA821222438280858389680164E2
:10143000068470BD002101804180818081608181AE
:10144000C18101824182704730B50124058C00F1D1
:1014500018038C40A543058431B308292CD0091FFB
:10146000C1F34E001844016848F6FF73194001604B
:1014700001681AE00000014000040040000800403C
:10148000000C004000100040001400400004014027
:101490000040014000440140004801400018004065
:1014A000001C00400020004006E04FF6FF7303EAF6
:1014B00002221143016030BD03EB510001684FF679
:1014C0008F73194001600168F3E7416370478163DE
:1014D0007047C163704701647047028B22F070024D
:1014E0000A4302837047028B4FF6FF7322F4E042F7
:1014F00003EA0121114301837047828B22F07002BD
:101500000A4382837047828B4FF6FF7322F4E042D6
:1015100003EA0121114381837047028B22F0080204
:101520000A4302837047028B4FF6FF7322F4006276
:1015300003EA0121114301837047828B22F00802E4
:101540000A4382837047828B4FF6FF7322F4006256
:1015500003EA0121114381837047028B22F00402C8
:101560000A4302837047028B4FF6FF7322F48062B6
:1015700003EA0121114301837047828B22F00402A8
:101580000A4382837047828B4FF6FF7322F4806296
:1015900003EA0121114381837047028B22F080020C
:1015A0000A4302837047028B4FF6FF73C2F30E02A9
:1015B00003EA0121114301837047828B22F08002EC
:1015C0000A4382837047828B4FF6FF73C2F30E0289
:1015D00003EA0121114381837047028C22F0020249
:1015E0000A4302847047028C22F008020A430284F4
:1015F0007047028C4FF6FF7322F0200203EA0111BC
:10160000114301847047028C4FF6FF7322F0800271
:1016100003EA0111114301847047028C4FF6FF73F6
:1016200022F4007203EA0121114301847047028C05
:101630004FF6FF7322F4006203EA01211143018493
:101640007047028C4FF6FF7322F4005203EA013117
:1016500011430184704710B50123048C8B409C43D7
:101660000484038C8A401343038410BD10B5042303
:10167000048C8B409C430484038C8A401343038472
:1016800010BD828B22F440628283828B4FF6FF73FF
:1016900003EA01210A4382837047828B22F00C0205
:1016A0008283828B0A4382837047028B22F44062DA
:1016B0000283028B4FF6FF7303EA01210A43028380
:1016C0007047F0B5048C24F010040484078B068C5A
:1016D0004FF6FF7404EA011527F4734704EA033157
:1016E000394304EA02220A4326F0A001294341F0CB
:1016F000100102830184F0BD028B22F00C020283F0
:10170000028B0A43028370472DE9F0410D460E8893
:101710004988AA882B8904460EB3042E26D0082EA9
:10172000268C4FF6FF7028D026F480562684A78B8F
:10173000268C00EA022200EA013127F473473A437B
:1017400000EA0330104326F420420A4342F4805159
:10175000A0832184E9882046BDE8F04191E700F0AC
:1017600062F9E9882046BDE8F041C5E7FFF7A9FF27
:10177000E9882046BDE8F04197E726F48076268484
:10178000A78B268C00EA012100EA0310104327F002
:10179000F307384326F420620A4342F48071A083A1
:1017A0002184E9882046BDE8F04176E700210180E8
:1017B000418001228280C180018170472DE9F04182
:1017C0000C46002649880746012501B90226A28851
:1017D000012A00D10225208823890028384610D00C
:1017E000FFF76FFFE1883846FFF75FFF23892A463E
:1017F0003146384600F017F9E1883846BDE8F04137
:101800007AE700F010F9E1883846FFF775FF238981
:101810002A4631463846FFF754FFE1883846BDE88E
:10182000F04142E7406B7047806B7047C06B704778
:10183000006C704710B50A884B88CC881A438B8897
:1018400023431A430B891A434B8989891A430A4354
:10185000A0F8442010BD0021018041808180C1801A
:101860000181418181817047002930F8441F02D0F5
:1018700041F4004101E0C1F30E01018070470029ED
:10188000818802D041F0040101E021F0040181804F
:1018900070470029818802D041F0010101E021F068
:1018A000010181807047002A828901D00A4300E04B
:1018B0008A43828170478182704702460020128AE3
:1018C0000A4200D001207047C94301827047024696
:1018D0000020138A92890B4202EA010202D0002AF8
:1018E00000D001207047C943018270471143A0F81E
:1018F00048107047002A828901D00A4300E08A43D9
:10190000828170470029818802D041F0080101E0FE
:1019100021F0080181807047018921F007010181D0
:101920007047028922F070020A430281704700B5B5
:101930000346FFF7F6FF188940F00700188100BD45
:1019400070B516460D46602904464FF00102314637
:101950000AD000F068F829462046FFF7E2FF208908
:1019600040F00700208170BDFFF7ABFEF3E730B514
:1019700004894FF6FF7505EA03231343E4B20B43D2
:101980002343038130BD10B50446FFF7F0FF2089E3
:1019900040F07700208110BD10B50446FFF7E7FF47
:1019A000208940F48040208110BD828822F070029E
:1019B000828082880A4382807047028922F007026F
:1019C000028102890A4302817047028922F0800263
:1019D000028102890A430281704770B50589048B30
:1019E000068C25F007050D434FF6FC410C4040F2F4
:1019F00001110C434FF6FF7101EA031126F0220694
:101A00001143314305810483018470BD002981881D
:101A100002D041F0800101E021F080018180704717
:101A2000A0F85010704770B5048C24F001040484B1
:101A3000058B048C4FF6FF7606EA0313134325F05B
:101A4000F3052B4324F00A020A4342F00101038309
:101A5000018470BDCD4910B5884206D10121102006
:101A6000FFF78DFA0021102020E0C949884202D1F9
:101A700001214C0429E0C749884202D101218C048C
:101A800023E0C549884202D10121CC041DE0C349AD
:101A9000884202D101210C0517E0C149884209D1D1
:101AA00001212020FFF76BFA00212020BDE8104023
:101AB000FFF765BABB49884202D101218C0704E0D7
:101AC000B94988420AD1012144052046FFF74DFA61
:101AD0002046BDE810400021FFF747BA10BD7FB592
:101AE0000446008A0D4620F44051E88808432082CD
:101AF000A08941F20C618843A9882A8911436A8927
:101B000002431143A181A08A20F44071A8890843AF
:101B1000A0826846FFF744F99C48844202D0A0485E
:101B2000844201D1039800E00298A189090400EBE6
:101B3000C00101EB0010296801D5490000E08900CF
:101B4000B0FBF1F26420B2FBF0F109010B096FF078
:101B500018056B4302EB8302A3891D044FF0320387
:101B600006D503EBC202B2FBF0F000F0070005E07F
:101B700003EB0212B2FBF0F000F00F0008432081EB
:101B80007FBD4FF41651016000218180C180018129
:101B90000C2242818181704710B5028A4C8822F460
:101BA00070630A8822438C88C9880C4322431A43F5
:101BB000028210BD0021018041808180C180704778
:101BC0000029818902D041F4005101E021F4005143
:101BD00081817047028B02F47F420283028B0A43A9
:101BE000028370470029818902D041F4004101E05D
:101BF000C1F30E01818170470029818A02D041F42E
:101C0000006101E021F4006181827047C1F30801A5
:101C1000818070478088C0F308007047028A22F0F4
:101C20000F020282028A0A430282704700298189D8
:101C300002D041F0020101E021F0020181817047F0
:101C4000828922F40062828182890A4382817047FC
:101C5000028A22F020020282028A0A43028270472C
:101C60000029018A02D041F4804101E021F4804141
:101C700001827047818941F001018181704700290B
:101C8000818A02D041F0080101E021F0080181823F
:101C90007047028BD2B20283028B42EA0121018398
:101CA00070470029818A02D041F0200101E021F033
:101CB0002001818270470029818A02D041F0100101
:101CC00001E021F0100181827047828A22F0040233
:101CD0008282828A0A43828270470029818A02D0E6
:101CE00041F0020101E021F0020181827047002AE7
:101CF000828A01D00A4300E08A438282704710B58D
:101D0000C1F3421301F01F040121A140012B07D0B0
:101D1000022B07D01430002A026805D00A4304E0E1
:101D20000C30F8E71030F6E78A43026010BD024637
:101D3000002012880A4200D001207047C943018068
:101D4000704730B501F01F0201240025C1F3421392
:101D500004FA02F2012B0FD0022B0FD0838A4FEA34
:101D600011210088134204FA01F400EA040001D0B2
:101D700000B10125284630BD8389F0E7038AEEE7EC
:101D80000A0A01219140C9430180704700100140B7
:101D90000044004000480040004C0040005000401B
:101DA0000014014000780040007C004018B500207D
:101DB000FB490090CA20086053200860F848183892
:101DC000026822F0A00202604FF400340268009B17
:101DD00002F020025B1C0093A34201D0002AF5D040
:101DE0000068800601D5012000E00020FF220A6083
:101DF00018BD08B500200090E94818380168490668
:101E000012D44FF0FF31016083130168009A01F092
:101E10004001521C00929A4201D00029F5D000687E
:101E2000400601D4002008BD012008BD78B500247B
:101E3000DB4ECA2000942546306053203060FFF707
:101E4000D8FFE0B3D64824380460D54942F20110E7
:101E500020390860091D086800F0070008608D132C
:101E6000081D0268009B02F004025B1C0093AB4259
:101E700001D0002AF5D00268520729D50A680C6003
:101E8000C74A4FF6FF71103A1160121FC549116021
:101E9000C3490C390C60091D0C60091D0C60C04958
:101EA00008310C60BE4918310C60BD4920310C600E
:101EB000091D0C600460BA481C30046000E003E0B7
:101EC000FFF774FF20B10125FF203060284678BD60
:101ED0000025F9E7B2481838016821F08001016057
:101EE000704770B5AE4E04460025CA2030605320BE
:101EF0003060FFF77EFFA8B1A9481C38016821F0C7
:101F0000400101600168226811430160A448A16892
:101F1000143801600168A28841EA02410160FFF7BC
:101F2000D9FF0125FF203060284670BD00210160E7
:101F30007F214160FF2181607047994908B1FF20EE
:101F400002E0CA20086053200860704770B5944CC6
:101F500006460025CA20206053202060FFF749FF75
:101F600060B18F481C38016816B141F0100101E0E2
:101F700021F010010160FFF7ADFF0125FF20206077
:101F8000284670BD864ACA211160532111608449D8
:101F90001C390028086802D040F0200001E000F061
:101FA000DF000860FF20106070472DE9F0417E4F90
:101FB0000C4602004FF0000620783A6831464FEA9E
:101FC000426204D0002A15DA00F005FC13E0002A72
:101FD00000DBE17000F0F3FB0504607800F0EFFB3C
:101FE00045EA0025A07800F0EAFB0543E07845EAE1
:101FF00000450AE0E170A078217840EA0145607868
:10200000E178000240EA01400543654CCA202060A7
:1020100053202060FFF7EDFE68B164480540624838
:1020200008380560FFF756FF3868800602D4FFF7CE
:10203000BDFE00B10126FF2020603046BDE8F081E2
:102040000021C170017041708170704710B50C465D
:10205000554908390968554A1140C1F305422270B3
:10206000C1F30623637001F07F03A370402303EAEA
:102070001141E17000280BD1104600F0ACFB20703C
:10208000607800F0A8FB6070A07800F0A4FBA0705E
:1020900010BD4348001D00684349091F0968704787
:1020A00070B50C46010060784FF0000629D000F0B2
:1020B00092FBA07800F08FFBA078E17840EA014520
:1020C00060782178000240EA41300543344CCA2050
:1020D000206053202060FFF78CFE70B1344805402B
:1020E0003148001F0560FFF7F5FE2F4800688006A5
:1020F00002D4FFF75BFE00B10126FF2020603046CE
:1021000070BDC10603D520F010000A306070E07881
:1021100000F055FB0504607800F051FB45EA00250E
:10212000A07800F04CFB0543207845EA4035CDE728
:1021300001210170817041700021C170704710B59C
:102140000C461949091F0968194A11400A0CE27026
:10215000C1F30423637001F03F03A370C1F3423164
:10216000217000280BD1104600F035FBE07060783C
:1021700000F031FB6070A07800F02DFBA07010BD66
:1021800070B514460D46084A0021002810684FEA31
:1021900040600FD0002826DA207800F01CFB23E0F6
:1021A00024280040FF007F00082800407F7F7F0038
:1021B0003FFFFF00002800DBE170207800F0FFFA0D
:1021C0000604607800F0FBFA46EA0026A07800F0EA
:1021D000F6FA0643E07846EA0046207B00F0EFFA84
:1021E00046EA006010E0E170207B00F0F4FAA0788D
:1021F0002178E27840EA01406178090241EA02412F
:102200000843217B40EA0160A168FA4A08436168FB
:102210000843CA21116053211160B5F5807F04D0B5
:10222000111F0860FF20106070BDF2490839F8E7FF
:102230000021C170017041708170012281600273C0
:102240004160704710B51446B1F5807F2BD0E94945
:10225000091F0968C1F305422270C1F306236370A8
:1022600001F07F03A370402303EA1143E370C1F33D
:102270000563237301F0804301F08031C4E9011349
:1022800000280FD1104600F0A6FA2070607800F008
:10229000A2FA6070A07800F09EFAA070207B00F097
:1022A0009AFA207310BDD3490839D2E738B5002215
:1022B000D04B0092CA221A6053221A60CD4A1C3AAF
:1022C0000029116802D00143116012E081431160BE
:1022D000C84A183A95131168009C01EA1021641C41
:1022E0000094AC4201D00029F5D0116811EA102009
:1022F00000D00120FF21196038BD10B5BD4BCA24A4
:102300001C6053241C601143B0F5807F05D0B94890
:1023100024300160FF20186010BDB6482030F8E777
:10232000B0F5807F05D0B34824300068C0F30E00BC
:102330007047B0482030F8E7AE4ACA2111605321F7
:102340001160AC491C390B6823F007030B600B6864
:1023500003430B60FF2010607047A649CA220A6041
:1023600053220A60A34A103A1060FF2008607047A9
:10237000A0481038006880B2704718B500219D4A07
:102380000091CA211160532111609A491C3900281B
:10239000086803D040F48060086014E020F4806096
:1023A00008609448183884130168009B01F0040108
:1023B0005B1C0093A34201D00029F5D000684007C0
:1023C00001D4002000E00120FF21116018BD894BDD
:1023D00010B5CA221A6053221A60864A1C3A146841
:1023E00024F4802414601468084304431460FF201C
:1023F000186010BD7F481C38006800F480207047CA
:102400007C4B10B5CA221A6053221A60794A1C3AD2
:10241000146824F4E004146014680843044314604E
:10242000FF20186010BDF0B5724C07460025CA2089
:102430000E46206053202060FFF7DBFC30B16D4872
:1024400037430C380760FFF745FD0125FF2020606A
:102450002846F0BD70B5674C06460025CA202060AE
:1024600053202060FFF7C5FC60B162481C3801684A
:1024700016B141F0800101E021F080010160FFF719
:1024800029FD0125FF202060284670BD594ACA2138
:1024900011605321116057491C390028086802D087
:1024A00040F4000001E020F400000860FF2010600C
:1024B0007047504ACA211160532111604D491C399F
:1024C0000B6823F400230B600B6803430B60FF20B1
:1024D00010607047F0B5474B0024CA251D60532596
:1024E0001D60444D183D2E68F60308D54FF40036A4
:1024F0002F68FF0303D5B44201D0641CF8E72C68B1
:10250000E40306D408433B49104318310860012016
:1025100000E00020FF211960F0BD364B10B51C3BD8
:102520001A6840F60804A24342EA000209B142F4E4
:1025300000623048CA210160532101601A60FF2106
:10254000016010BD70B50D462A4914460C3109686A
:10255000294A1140274A103212684FF63F731A4039
:10256000C1F305432B70C1F306236B7001F07F03A9
:10257000AB70402303EA1141E9700021E170C2F31E
:102580000421617002F03F01A170C2F34231217059
:10259000002817D1287800F01EF92870687800F01C
:1025A0001AF96870A87800F016F9A870607800F041
:1025B00012F96070A07800F00EF9A070207800F099
:1025C0000AF9207070BD0B48143000687047094A42
:1025D0001C320029116803D041EA400010607047A6
:1025E00021EA4000FAE7034A1C320029116805D0AD
:1025F000014304E0242800407F7F7F008143116075
:10260000704779490A6822F4C0520A600A68024396
:102610000A60704774490A6822F4E0620A600A6836
:1026200002430A60704770490A6822F4C0420A6097
:102630000A6802430A6070476B490028086802D0A4
:1026400040F0800001E020F080000860704766499B
:102650000028086802D020F4004001E040F4004067
:1026600008607047604A08B5103202EB80000090A5
:10267000016008BD5C4908B5103101EB8000009095
:10268000006808BD58490A6822F480320A600A6866
:1026900002430A60704754490A6822F400320A6013
:1026A0000A6802430A6070474F490A6822F4802290
:1026B0000A600A6802430A60704770B54A4C0022FB
:1026C000CA231C3C236053232360474B343B1D68C3
:1026D0002D0707D59D141E68360703D5AA4201D0E1
:1026E000521CF8E71A6812070DD43F4A383A1268AC
:1026F000D20608D401433C4814380160FFF756FB6A
:1027000010B1012000E00020FF21216070BD30B534
:10271000354DCA221C3D2A6053222A60324B20F0DC
:102720000404383B0029304A196800F0040004D042
:10273000214319601168014303E0A1431960116846
:1027400081431160FF20286030BD024626490020E9
:1027500034390968254B1940114200D001207047D7
:1027600080B240F08000C1431F483438026802F054
:1027700080021143016070471B4A0021126802F079
:102780000403194A383A126803EAD03302401A4364
:10279000174B1B6803EA101003D00004000C00D094
:1027A000012108467047C0F30F1040F08000C1437C
:1027B0000F48026802F08002114301607047002157
:1027C00003E0491C0A38C9B2C0B20A28F9D2090785
:1027D00040EA11607047010901EB810100F00F0030
:1027E00000EB4100C0B27047402800407F3F01002D
:1027F0000C28004010B501210C072046FEF7B5FB60
:102800002046BDE810400021FEF7AFBB40490862FA
:102810007047404A116821F0E001014311607047A0
:102820003B49086170473A49C1F8A00070473849F0
:10283000C1F8A4007047374A116821F440410143B0
:1028400011607047324908647047314948647047E5
:1028500030490028086802D040F4402001E020F40C
:102860004020086070472A4900B10120C8627047C3
:10287000274900B1012088627047254948627047A6
:10288000244B10B51A6840F60344A24302431A6071
:102890002148026842F004020260012905D020BFED
:1028A000016821F00401016010BD30BFF8E7194B49
:1028B00010B51A6840F60344A24302431A60164852
:1028C000026842F004020260012905D020BF0168BD
:1028D00021F00401016010BD30BFF8E70D48016828
:1028E00041F0020101600C48016841F004010160FF
:1028F00030BF7047074A0146002052680A4200D0A4
:102900000120704703490A6842EA80000860704766
:1029100000000E420070004010ED00E0354900203C
:102920000860091D0860091D0860091D086031491B
:10293000314814310860704730B52E4983790268F8
:1029400053B30B6893430B600A1D13680468A343D9
:10295000136002790A441368046823431360254A0C
:10296000083213680468A3431360131D1C680568CC
:10297000AC431C604479102C05D021440A680068DF
:1029800002430A6030BD1168046821431160196870
:1029900000680143196030BD007908440168914323
:1029A000016030BD0021016001710C224271817112
:1029B0007047104910310A6802430A6070470146A7
:1029C0000C4A0020143212680A4200D001207047DD
:1029D00008491431086070470146064A0020143245
:1029E00012680A4200D00120704702491431086081
:1029F00070470000003C0140FFFF7F0010B501213F
:102A00000C022046FEF7BBFA2046BDE8104000212C
:102A1000FEF7B5BA30B54268C84B0C791A400B685E
:102A200042EA0422134343608268C54B4D791A4041
:102A3000D1E9034323438C6844EA45042343134309
:102A40008360C26A097D22F47002491EC9B242EA5B
:102A50000151C16230BD002101600171417181608D
:102A6000C1600161012101757047B64B10B5D3F803
:102A70000423B5490A40D0E900142143D0E90240BB
:102A8000044321431143C3F8041310BD0021016026
:102A900041608160C16070470029816802D041F0C7
:102AA000010101E021F00101816070474268A74BFC
:102AB0001A400A434260704741628262704742682E
:102AC00022F01F020A43426070479E490028D1F855
:102AD000040302D040F4000001E020F40000C1F83B
:102AE0000403704797490028D1F8040302D040F44A
:102AF000800001E020F48000C1F80403704770B545
:102B0000072409290AD9C568A1F10A0606EB460679
:102B1000B440A543B3401D43C56007E0056901EB20
:102B20004106B440A543B3401D4305611F23072A56
:102B300009D2446B521E02EB820293409C439140A7
:102B40000C43446370BD0D2A09D2046BD21F02EB03
:102B5000820293409C4391400C43046370BDC46A5D
:102B60000D3A02EB820293409C4391400C43C462B5
:102B700070BD816841F0804181607047014600204E
:102B80008968490000D5012070470029816802D07A
:102B900041F4806101E021F4806181607047002987
:102BA000816802D041F0020101E021F00201816060
:102BB00070474268491E22F4604242EA4131416056
:102BC00070470029416802D041F4006101E021F41E
:102BD000006141607047C06C80B270475948D0F8BE
:102BE000080370470029816802D041F4807101E038
:102BF00021F48071816070470029816802D041F41E
:102C0000007101E021F40071816070474D49002896
:102C1000D1F8040302D040F4005001E020F4005049
:102C2000C1F80403704770B5072409290AD9C5689B
:102C3000A1F10A0606EB4606B440A543B3401D4386
:102C4000C56007E0056901EB4106B440A543B34008
:102C50001D430561836BC3F30154121B921C02EBED
:102C600082041F22A2409343A1400B43836370BDA3
:102C7000826B491E22F4401242EA0151816370477F
:102C800008B508440090026008BD826822F47022F2
:102C90000A4382607047826822F440120A438260CD
:102CA0007047816841F480018160704701460020CF
:102CB0008968490200D5012070470029416802D087
:102CC00041F4806101E021F4806141607047002996
:102CD000416802D041F4805101E021F4805141600B
:102CE000704708B5084428300090006880B208BDDD
:102CF00001238B4041680AB1194300E099434160C8
:102D000070470246002012680A4200D00120704736
:102D1000C9430160704730B50246002053680C0A71
:102D200001258D4011682B40214202D0002B00D09C
:102D3000012030BD6FEA112101607047FFFEFFFCEA
:102D4000FDF7FFC000200140E030FCFFFFFD3FFF2A
:102D5000FE4910B588424FF0010101D14C0601E057
:102D60004FF080642046FEF700F92046BDE8104091
:102D70000021FEF7FAB810B50368002223F0020321
:102D80000360036843F0010303604FF6FF7300E044
:102D9000521C4468E40701D19A42F9D14268D20733
:102DA0003ED08A79012A02683CD022F0800202607B
:102DB000CA79012A026838D022F0400202600A7AF9
:102DC000012A026834D022F0200202604A7A012AE5
:102DD000026830D022F0100202608A7A012A02686A
:102DE0002CD022F008020260CA7A012A026828D098
:102DF00022F0040202608A78CC78920742EA0462E8
:102E00000C7942EA04424C79098842EA0452491E8C
:102E10000A43C261016821F001010160002114E050
:102E2000002010BD42F08002C1E742F04002C5E739
:102E300042F02002C9E742F01002CDE742F008025A
:102E4000D1E742F00402D5E7491C4268D20701D01D
:102E50009942F9D14068C007E2D1012010BDF0B518
:102E6000827A01219140BA4A136843F0010313604A
:102E7000B74B1C331C688C431C60B54D067BB54CAE
:102E80000C35A6B92E688E432E604688C78846EA60
:102E90000746877A04EBC707C7F840660688878825
:102EA00046EA0746877A04EBC707C7F84466067BFD
:102EB000012E12D12E680E432E60867A056804EB2F
:102EC000C6064FEA3545C6F84056867A456804EB93
:102ED000C6044FEA3545C4F844569D4CC57A241DB6
:102EE000002D256806D00D432560994C05891434C2
:102EF00015B104E08D43F7E725688D43256005890A
:102F0000012D02D125680D432560407B012802D1A7
:102F1000186808431860106820F001001060F0BDC8
:102F200000218171C171017241728172C17281701F
:102F3000C17003210171022141710121018070479B
:102F400083490A6842F001020A600A6843F60E7378
:102F50009A430A600A6842EA00200860086820F084
:102F60000100086070470029016802D041F48031F7
:102F700001E021F48031016070470029016813D01D
:102F800041F080010160D0F8841141F48071C0F8F3
:102F90008411D0F8941141F48071C0F89411D0F8E4
:102FA000A41141F4807112E021F080010160D0F899
:102FB000841121F48071C0F88411D0F8941121F4A7
:102FC0008071C0F89411D0F8A41121F48071C0F878
:102FD000A411704730B50246002093685B0108D405
:102FE0009068000101D5012003E09068C00037D54A
:102FF000022002EB0012D2F8803103F00103C2F884
:1030000080310B7A73B3D2F880414D681C434B7A00
:1030100043EAC5031C43C2F880418B7A03F00F03D7
:103020008B72D2F8843123F00F03C2F88431D2F8C6
:1030300084318C7A2343C2F88431CB7ACC6843EA5A
:103040000423C2F88831CB7B096943EA0121C2F825
:103050008C11D2F8801141F00101C2F8801130BD0D
:10306000042030BDD2F880314C7A23430C8843EAE7
:103070004453C2F88031D0E7002221B1012905D0A4
:10308000022906D112E08268334801E082683348A1
:1030900002403349501A8A4214D00ADCA2B16FF0C0
:1030A000806010180FD002280CD10FE082682D48E4
:1030B000EEE7B0F5007F09D02B49401803D0B0F5FA
:1030C000003F03D000207047022070470120704766
:1030D00041B101290AD0022903D1816841F40001DC
:1030E00081607047816841F08001F9E7816841F4AF
:1030F0000041F5E710B500EB0113D3F8B04114F02F
:1031000004041472D3F8B04145D0E408C2F8044076
:10311000D3F8B04104F002045472D3F8B44104F07F
:103120000F049472D3F8B441240AD474D3F8B8418C
:10313000D472D3F8B841240A1473D3F8B841240CDC
:103140005473D3F8B841240E94730FE00064004028
:103150000066004000600040030000040003000817
:1031600000010008000003100001FFF7D3F8BC4184
:10317000D473D3F8BC41240A1474D3F8BC41240C92
:103180005474D3F8BC311B0E937439B1016941F00A
:103190002001016110BD640D1460B9E7C16841F000
:1031A0002001C16010BD21B1016941F02001016120
:1031B0007047C16841F02001C1607047024600209D
:1031C00029B1012902D1106900F003007047D068CD
:1031D000FAE700234FF6FF7221B1012917D0022927
:1031E00024D03AE0016821F0020141F001010160C0
:1031F00000E0521E416801F00301012901D0002ABC
:10320000F7D1406800F00300012823D124E00168D1
:1032100021F00301016000E0521E4168890701D0DE
:10322000002AF9D14068800714D115E0016821F027
:10323000010141F00201016000E0521E416801F00D
:103240000301022901D0002AF7D1406800F00300F1
:10325000022801D0002300E00123184670470268CD
:10326000002122F0010242F002020260406800F0F8
:103270000300022800D101210846704703684FF679
:10328000FF71002223F00203036000E0491E43683F
:103290009B0701D50029F9D14068800700D401229D
:1032A000104670478069C0F30210000170478069C2
:1032B000000E70478069C0F307407047002A4269DA
:1032C00001D00A4300E08A43426170470246002071
:1032D00011F4700F03D0926904E001207047CB0114
:1032E00004D552680A401103F7D170470B0101D58C
:1032F0009268F7E78B0101D5D268F3E71269F1E72D
:10330000534A914202D1002181617047C1F31302F7
:103310008B0101D5C26070474B0101D50261704736
:10332000090101D582607047426070470246002063
:1033300053690B424AD0B1F5807F3BD013DC08299A
:103340002ED007DC012926D0022927D004293DD11F
:10335000D0682BE0102925D0202926D0402935D14E
:103360001069102130E0B1F5004F2BD00BDCB1F526
:10337000007F22D0B1F5806F22D0B1F5006F25D14A
:103380009069702120E0B1F5803F11D0B1F5003F88
:103390001CD15068E5E790682E4915E0D06802E03E
:1033A000D068DEE7106903210EE0106908210BE008
:1033B0005068FBE79069012106E09069022103E073
:1033C000906900E05068042100F03BB8704730B5C8
:1033D000082310240422B1F5007F1DD010DC202921
:1033E00029D007DC012921D0042922D0082900D1C5
:1033F000C46030BD402920D0B1F5807FF9D10BE009
:103400000025B1F5004F06D008DCB1F5806F03D080
:10341000B1F5006FEDD18561426030BDB1F5803FFF
:103420000DD0B1F5003FF8D1446030BD094981604D
:1034300030BDC36030BD036130BD046130BD436049
:1034400030BD024600200A4200D001207047000033
:103450007000F0300101010001B5BDF80000ADF8C9
:103460000000BDF800004FF0D841A1F87E0008BD73
:1034700001B5BDF80000ADF80000BDF800004FF048
:10348000D841A1F8800008BD08B54FF0D840B0F889
:103490008000ADF80000BDF8000008BD03B5BDF820
:1034A00000104FF0D84020F87E1FBDF80410418076
:1034B0000CBD01B5BDF80000FFF7CEFF052007F0F9
:1034C000C6FFBDE80840DFE7FE484FF0D84100895D
:1034D000A1F87E0070474FF0D841A1F880007047F6
:1034E000C0F34511C20AC00200EB4110104480B283
:1034F0007047401EC0B2FCD27047F0B5F14E024694
:103500003346B0880C464FEA112C150A5B89A0F5AA
:10351000134141391AD0A0F5A641103916D0B6464C
:10352000B1793688A0F5D047B61A761E043F18D078
:103530007746A0F5C85EBEF1630E27D0A0F5A04E79
:10354000BEF5A26E5CD0012975D075E01846FFF774
:1035500083FF2846FFF78CFFD0B2FFF789FFB089C1
:103560000DE07546012900D1B2B21846FFF774FF8D
:10357000100AFFF77DFFD0B2FFF77AFFA889FFF7A7
:103580006BFF6046FFF774FFE0B227E049B31846CF
:10359000FFF762FF2846FFF76BFFD0B2FFF768FF27
:1035A0003888401EC0F30F20FFF762FF3878401EB6
:1035B0005FFA80F0FFF75CFFB889FFF74DFF6046C8
:1035C000FFF756FFE0B2FFF753FF7888401EC0F3C5
:1035D0000F20FFF74DFFB878401EC0B2BDE8F040A5
:1035E00046E7B2B21846FFF737FF0020FFF740FF6B
:1035F0000020FFF73DFF100AFFF73AFFD0B2D9E7EE
:103600001846FFF729FF2846FFF732FF7889401C4C
:1036100080B2FFF721FFD0B2FFF72AFFB889FFF78A
:103620001BFF6046FFF724FFB889401C80B2FFF7FC
:1036300013FFA9E7FFE7B2B211461846FFF72EFFC6
:10364000B8892146BDE8F04028E7FEB50022ADF874
:103650000020ADF80420ADF808209A4C2288824260
:1036600002D962888A4201D80020FEBDFFF745FFDB
:10367000A08849F2413241F6631745F2103545F210
:103680001056904207D0A0F5D041043903D0A8428B
:1036900001D0B84201D12E2005E0B04202D14FF452
:1036A000385000E02220FFF7D7FEA088A0F5134194
:1036B000203903D10120401EC0B2FCD2FFF7E4FE46
:1036C000ADF80000A088B8424CD00120401EC0B226
:1036D000FCD2FFF7D9FEADF80000A088904203D0DD
:1036E000A84201D0B04214D10120401EC0B2FCD289
:1036F000FFF7CAFEADF80800BDF80000C0B2ADF893
:103700000400BDF804004FF6FF7101EA0020ADF897
:103710000400A088A0F51341253923D0A0F58A41E3
:1037200035391FD0A0F58A4131391BD0A0F535417C
:10373000053917D0A0F54541053913D0904203D083
:10374000A84201D0B04210D1BDF80000BDF804106D
:103750006FF30A00890A40EA4110BDF8081040EAF8
:10376000D120FEBDBDF80000FEBDBDF80000BDE8E3
:10377000FE40B5E653488088A0F51341413913D087
:10378000A0F5D04104390FD0A0F5A64110390BD0D7
:10379000A0F5C851633907D0A0F5AA41103905D06A
:1037A00040F27311072079E6292001E04FF42450FC
:1037B00052E644488088A0F51341413912D0A0F563
:1037C000D04104390ED0A0F5A64110390AD0A0F599
:1037D000C851633906D0A0F5AA41103904D00021A0
:1037E00007205BE6282001E04FF4205034E6F0B5D6
:1037F000344D00242946AB79898846F6040241F607
:103800006317012B01D02BB11DE091421BD0B942AF
:1038100002D118E0B94216D1082814D2DFE800F02E
:103820000406080A0C0E101206200CE007200AE01D
:10383000042008E0052006E0012004E0002002E06A
:10384000032000E00220A1F5134C45F2103345F2AD
:103850001056BCF1410C07D0914205D0994203D0DB
:10386000B14201D0B9427CD1082812D2DFE800F081
:10387000110406080A0C0E1080240AE0402408E017
:10388000C02406E0202404E0602402E0A02400E03C
:10389000E024B14202D14FF4585000E03620994262
:1038A00005D0B14203D0B94201D044F0080491429E
:1038B00001D144F002042146FFF7F0FDA988B94286
:1038C0000DD001E0CC0E0020A00628886A8802D521
:1038D000904202D303E0904201D92A80688068892F
:1038E000B14242D1FFF7B8FD0020FFF7C1FD688962
:1038F000401C80B2FFF7B0FD0020FFF7B9FD6889DA
:10390000801C80B2FFF7A8FD2888401EC0F30F205E
:10391000FFF7AEFD6889C01C80B2FFF79DFD2878D7
:10392000401EC0B2FFF7A4FDA889FFF795FD002057
:10393000FFF79EFDA889401C80B2FFF78DFD002097
:10394000FFF796FDA889801C80B2FFF785FD688887
:10395000401EC0F30F20FFF78BFDA889C01C80B26A
:1039600000E02AE0FFF778FD21E0FFF775FD002079
:10397000FFF77EFD0020FFF77BFD2888401EC0F387
:103980000F20FFF775FD2878401EC0B2FFF770FDCD
:10399000A889FFF761FD0020FFF76AFD0020FFF70F
:1039A00067FD6888401EC0F30F20FFF761FDA8780F
:1039B000BDE8F040401EC0B25AE5082812D2DFE848
:1039C00000F0040608110A0C0E1030240AE010243E
:1039D00008E0202406E0382404E0282402E018242B
:1039E00000E0082444F48051BDE8F040032055E590
:1039F00000B5FFF782FDFFF767FDFE484FF0D841A5
:103A00000088A1F8800000BD2DE9F041FA4C9046F5
:103A10000246A08823460D464FEA112C160A5B8900
:103A2000A0F51341413917D0A0F5A641103913D0A4
:103A3000A0F5AA41103914D02646A0F5C857B1798F
:103A40003688B61A761E633F25D0A0F5D047043FCE
:103A50003DD0012951D051E01846FFF7FDFC30461A
:103A60003CE01846FFF7F8FC3046FFF701FD60899F
:103A7000401C80B2FFF7F0FCD0B2FFF7F9FCA08940
:103A8000FFF7EAFC6046FFF7F3FCA089401C80B218
:103A9000FFF7E2FC2DE001B9B2B21846FFF7DCFCFB
:103AA000160A3046FFF7E4FCD0B2FFF7E1FC3046DF
:103AB000FFF7DEFCD0B2FFF7DBFCA089FFF7CCFC00
:103AC0006046FFF7D5FCE8B2FFF7D2FC0EE0012913
:103AD00000D1B2B21846FFF7BFFC100AFFF7C8FCCE
:103AE000D0B2FFF7C5FCA089FFF7B6FC6046FFF730
:103AF000BFFCE8B2FFF7BCFC08E0B2B211461846C2
:103B0000FFF7CCFCA0892946FFF7C8FC4FF0D8404E
:103B10002189A0F87E10A0F88080BDE8F08110B562
:103B20000246BE20FFF798FC0520FFF7A1FC1046D7
:103B300029F0C0FD9FEDB11B53EC112B29F00AFEBB
:103B400029F074FD80B2FFF793FC0120FFF790FC91
:103B5000FF20FFF78DFC0020FFF78AFCBDE8104036
:103B6000002085E42DE9F04FA3492A242B258988DC
:103B700045F2105A4FF4305B4FF4285E4FF448760C
:103B80004FF0F00C49F241394FF4A07345F2103771
:103B90004FF4F07280B198484FF00108494580F821
:103BA00006800380A0F802C001D0B9423ED12C2685
:103BB00006814481858157E08F484FF000084945D0
:103BC00080F80680A0F800C0438006D0A1F5D04C54
:103BD000BCF1040C01D0B9420CD12C2606814481E1
:103BE000A1F5D0448581043C01D0B94244D1038081
:103BF000428041E0514507D1A0F808B0A0F80AE0A2
:103C00004FF42C5181810EE0A1F5C853633B06D0DF
:103C10002221018120214181212181812CE02C213F
:103C20000181458184810280468025E0A1F5D04C48
:103C3000BCF1040C09D051450BD1A0F808B0A0F894
:103C40000AE04FF42C54848120E02C260681458123
:103C500009E0A1F5C85CBCF1630C11D022240481F9
:103C60002124448120248481A1F5D044043C01D046
:103C7000B94201D102804380BDE8F04F0020B6E593
:103C80004FF02C0CA0F808C044818581068042804A
:103C9000EAE72DE9FE4F0446104401EB0308DFF884
:103CA0005891401EA8F1010887B2B9F80400C8F382
:103CB000072302930B0A0093A3185B1EC3F3072389
:103CC00001934B460D465B89A0F513411FFA88F618
:103CD0004FEA142B413912D0A0F5A04CBCF5447C1E
:103CE0000DD0A0F5D04CBCF1040C08D099F806A07A
:103CF00041F6631CBAF1010F1ED160451CD14A4642
:103D00001846FFF7A9FB5846FFF7B2FBE0B2FFF7F2
:103D1000AFFB0198FFF7ACFBF8B2FFF7A9FB908966
:103D2000FFF79AFB0098FFF7A3FBE8B2FFF7A0FBB1
:103D30000298FFF79DFB95E02F496045098825D142
:103D4000881A001B84B24E461FFA88F71846FFF700
:103D500083FB200AFFF78CFBE0B2FFF789FB2244CC
:103D6000521EC2F30F20FFF783FBD0B2FFF780FB98
:103D7000B089FFF771FB0098FFF77AFBE8B2FFF715
:103D800077FB380AFFF774FBF8B26CE0A0F5A04CA3
:103D90004A46BCF5A26C23D0BAF1010F67D0BC46ED
:103DA00020462F46502201464FF0510A4FF052094B
:103DB0004FF053081046FFF771FB61465046FFF77E
:103DC0006DFB39464846FFF769FB31464046FFF731
:103DD00065FB03B029462046BDE8F04FFFF78DBBD9
:103DE0001846FFF739FB5846FFF742FB5089401C45
:103DF00080B207E010000020CC0E002066666666E8
:103E000066660440FFF728FBE0B2FFF731FB5089FC
:103E1000801C80B2FFF720FB0198FFF729FB508937
:103E2000C01C80B2FFF718FBF8B2FFF721FB9089A6
:103E3000FFF712FB0098FFF71BFB9089401C80B234
:103E4000FFF70AFBE8B2FFF713FB9089801C80B2F2
:103E5000FFF702FB0298FFF70BFB9089C01C80B2B2
:103E6000FFF7FAFAF0B2BDE8FE4FFFF701BBCA1B3D
:103E7000521E091BB446491E284697B28EB291E7DE
:103E80002DE9F043FF4C8146002520886688464393
:103E9000A088A0F5D041043902D1A079012808D02A
:103EA00000210846FFF729FBFFF70EFB4FF0D84033
:103EB00013E00020A0712A2767814FF02B08A4F897
:103EC0000C800146FFF719FB0120A071A4F80A80BD
:103ED000A781E9E7A0F880906D1CB542FAD3BDE850
:103EE000F0832DE9F04FA1B0002401217E20119430
:103EF000FCF7EBFF01210846FCF7FBFF8020009058
:103F000001208DF804008DF8064002208DF8050090
:103F100001208DF807006946DB48FCF7BDFD4CF237
:103F20003370009002208DF804008DF806400320C5
:103F30008DF8050001208DF807006946D348FCF78D
:103F4000ABFD4FF68070009002208DF804008DF8D4
:103F5000064003208DF805000120CD4E8DF80700A6
:103F600069463046FCF798FD02208DF804008DF874
:103F7000064003208DF805000120C64FB5148DF8CA
:103F80000700009569463846FCF786FD02208DF84B
:103F900004008DF8064003208DF805000120DFF8AD
:103FA000F8828DF80700009569464046FCF774FDDD
:103FB0000C220021B548FCF7F8FD0C220121B34882
:103FC000FCF7F3FD0C220421B048FCF7EEFD0C22B7
:103FD0000521AE48FCF7E9FD0C220821AB48FCF7AF
:103FE000E4FD0C220921A948FCF7DFFD0C220A217F
:103FF000A648FCF7DAFD0C220E21A448FCF7D5FDFB
:104000000C220F21A148FCF7D0FD0C2207213046DD
:10401000FCF7CBFD0C2208213046FCF7C6FD0C2234
:1040200009213046FCF7C1FD0C220A213046FCF77D
:10403000BCFD0C220B213046FCF7B7FD0C221146CB
:104040003046FCF7B2FD0C220D213046FCF7ADFDE9
:104050000C220E213046FCF7A8FD0C220F21304621
:10406000FCF7A3FD0C2211463846FCF79EFD0C22FE
:1040700011464046FCF799FD0F20CDE912043C2083
:10408000CDE914040920CDE9184016940820CDE9A3
:104090001A4017941C940620CDE902041D941E9426
:1040A0001020CDE90440089407948002CDE90C402B
:1040B0001F9406940994CDE90A4512A8CDE90E4053
:1040C00019A8109002A8FCF76BFA01210620FCF752
:1040D000E0FA322007F0DAF901210020FFF7DEF9DB
:1040E000322007F0D3F90020FFF7E3F9654A4FF0DB
:1040F00020494FF6FF7A908049F2413545F210365B
:1041000045F2105441F6631746F60408FF2804D31D
:10411000504502D0B0F5134F74D1D320FFF79CF96E
:10412000FFF7B2F99080FFF7AFF99080FFF7ACF995
:104130000AEA0020D4469080FFF7A6F99188084348
:104140009080A8425ED0BF20FFF786F9FFF79CF968
:104150009080FFF799F99080FFF796F99080FFF72C
:1041600093F90CEA00209080FFF78EF991880843BC
:104170009080404546D0D420FFF76EF9FFF784F9D0
:104180009080FFF781F99080FFF77EF90CEA00201C
:104190009080FFF779F9918808439080B04231D040
:1041A0004FF45A40FFF758F9FFF76EF990804FF43B
:1041B0005B40FFF751F9FFF767F90CEA00209080A8
:1041C0004FF45C40FFF748F9FFF75EF99188084328
:1041D0009080B0F5004F38D0A04213D0A120FFF757
:1041E0003BF9FFF751F99080FFF74EF90CEA0020F8
:1041F0009080FFF749F991880843A0F5AE4190807F
:10420000613920D080B2A84205D0B04203D0A0428C
:1042100001D0B8421BD1D9F81C11484621F00F013A
:10422000C9F81C11D9F81C1121F47061C9F81C11CE
:10423000D9F81C1141F00301C9F81C11D9F81C115F
:1042400041F400712EE09780E5E79480E3E7404574
:1042500003D0A0F54541053926D1D9F81C114846AF
:1042600021F00F01C9F81C11D9F81C1121F470615B
:10427000C9F81C11D9F81C1141F00A01C9F81C1128
:104280000CE00000CC0E002000080240000C0240B0
:10429000001002400014024000180240D9F81C111E
:1042A00041F44061C0F81C1191469188FEA00FF0C6
:1042B00039F9B9F80400A8427ED1CF20FFF7CCF835
:1042C0000020FFF7D5F81198401C1190C120FFF78E
:1042D000CFF83020FFF7CCF8ED20FFF7BDF86420D1
:1042E000FFF7C6F80320FFF7C3F81220FFF7C0F866
:1042F0008120FFF7BDF8E820FFF7AEF88520FFF733
:10430000B7F81020FFF7B4F87A20FFF7B1F8CB2008
:10431000FFF7A2F83920FFF7ABF82C20FFF7A8F839
:104320000020FFF7A5F83420FFF7A2F80220FFF7DE
:104330009FF8F720FFF790F82020FFF799F8EA2080
:10434000FFF78AF80020FFF793F80020FFF790F8B6
:10435000C020FFF781F81B20FFF78AF8C120FFF784
:104360007BF80120FFF784F8C520FFF775F83020AF
:10437000FFF77EF83020FFF77BF8C720FFF76CF8D7
:10438000B720FFF775F83620FFF766F84820FFF7EB
:104390006FF83A20FFF760F85520FFF769F8B12071
:1043A000FFF75AF80020FFF763F81A20FFF760F8CC
:1043B000B620FFF751F800E093E00A20FFF758F825
:1043C000A220FFF755F8F220FFF746F80020FFF78C
:1043D0004FF82620FFF740F80120FFF749F8E020CA
:1043E000FFF73AF80F20FFF743F82A20FFF740F8CD
:1043F0002820FFF73DF80820FFF73AF80E20FFF7D6
:1044000037F80820FFF734F85420FFF731F8A920D7
:10441000FFF72EF84320FFF72BF80A20FFF728F8C4
:104420000F20FFF725F80020FFF722F80020FFF704
:104430001FF80020FFF71CF80020FFF719F8E12013
:10444000FFF70AF80020FFF713F81520FFF710F820
:104450001720FFF70DF80720FFF70AF81120FFF7E4
:1044600007F80620FFF704F82B20FFF701F8562085
:10447000FEF7FEFF3C20FEF7FBFF0520FEF7F8FFEE
:104480001020FEF7F5FF0F20FEF7F2FF3F20FEF7AA
:10449000EFFF3F20FEF7ECFF0F20FEF7E9FF2B2098
:1044A000FEF7DAFF0020FEF7E3FF0020FEF7E0FF53
:1044B0000120FEF7DDFF3F20FEF7DAFF2A20FEF79E
:1044C000CBFF0020FEF7D4FF0020FEF7D1FF002035
:1044D000FEF7CEFFEF20FEF7CBFF1120FEF7BCFF6B
:1044E000A5E040457ED11120FEF7B6FF142006F06E
:1044F000CDFFD020FEF7B0FF0720FEF7B9FF422026
:10450000FEF7B6FF1D20FEF7B3FFD120FEF7A4FF94
:104510000020FEF7ADFF1A20FEF7AAFF0920FEF7E4
:10452000A7FFD220FEF798FF0120FEF7A1FF22206F
:10453000FEF79EFFC020FEF78FFF1020FEF798FFCA
:104540003B20FEF795FF0020FEF792FF0220FEF7CA
:104550008FFF1120FEF78CFFC520FEF77DFF0320A3
:10456000FEF786FFC820FEF777FF0020FEF780FFEA
:104570002520FEF77DFF2120FEF77AFF0520FEF7BC
:1045800077FF0020FEF774FF0A20FEF771FF652019
:10459000FEF76EFF2520FEF76BFF7720FEF768FF22
:1045A0005020FEF765FF0F20FEF762FF0020FEF7A8
:1045B0005FFFF820FEF750FF0120FEF759FFFE20B5
:1045C000FEF74AFF0020FEF753FF0220FEF750FFE0
:1045D0002020FEF741FF3620FEF73EFF0820FEF7C1
:1045E00047FF00E029E03A20FEF736FF5520FEF7AE
:1045F0003FFF2B20FEF730FF0020FEF739FF0020A1
:10460000FEF736FF0120FEF733FF3F20FEF730FFB5
:104610002A20FEF721FF0020FEF72AFF0020FEF7E8
:1046200027FF0120FEF724FFDF20FEF721FF78207F
:1046300006F02CFF292001F002BFB0427DD1ED2011
:10464000FEF70AFF0120FEF713FFFE20FEF710FF22
:10465000EE20FEF701FFDE20FEF70AFF2120FEF725
:1046600007FFF120FEF7F8FE0120FEF701FFDF2033
:10467000FEF7F2FE1020FEF7FBFEC420FEF7ECFE74
:104680008F20FEF7F5FEC620FEF7E6FE0020FEF7BF
:10469000EFFEE220FEF7ECFEE220FEF7E9FEE2206C
:1046A000FEF7E6FEBF2005E04C43442049443A258E
:1046B000780D0A00FEF7D0FEAA20FEF7D9FEB02042
:1046C000FEF7CAFE0D20FEF7D3FE0020FEF7D0FE57
:1046D0000D20FEF7CDFE0020FEF7CAFE1120FEF7EA
:1046E000C7FE0020FEF7C4FE1920FEF7C1FE002021
:1046F000FEF7BEFE2120FEF7BBFE0020FEF7B8FE4F
:104700002D20FEF7B5FE0020FEF7B2FE3D20FEF79D
:10471000AFFE0020FEF7ACFE5D20FEF7A9FE0020F4
:10472000FEF7A6FE5D20FEF7A3FE0020FEF7A0FE2A
:10473000B120FEF791FE802000E0FCE3FEF798FE3A
:104740000020FEF795FE8B20FEF792FE0020FEF77C
:104750008FFE9620FEF78CFE0020FEF789FEB22029
:10476000FEF77AFE0020FEF783FE0020FEF780FEB3
:104770000220FEF77DFE0020FEF77AFE0320FEF702
:1047800077FE0020FEF774FEB320FEF765FE0020E2
:10479000FEF76EFE0020FEF76BFE0020FEF768FEBF
:1047A0000020FEF765FE0020FEF762FE0020FEF707
:1047B0005FFE0020FEF75CFE0020FEF759FE0020A1
:1047C000FEF756FE0020FEF753FE0020FEF750FED7
:1047D0000020FEF74DFE0020FEF74AFE0020FEF707
:1047E00047FE0020FEF744FE0020FEF741FE0020B9
:1047F000FEF73EFE0020FEF73BFE0020FEF738FEEF
:104800000020FEF735FE0020FEF732FE0020FEF706
:104810002FFE0020FEF72CFE0020FEF729FEB4201C
:10482000FEF71AFE8B20FEF723FE0020FEF720FE87
:104830009620FEF71DFE0020FEF71AFEA120FEF7CF
:1048400017FE0020FEF714FEB520FEF705FE02203D
:10485000FEF70EFE0020FEF70BFE0320FEF708FE1B
:104860000020FEF705FE0420FEF702FE0020FEF702
:10487000FFFDB620FEF7F0FD0020FEF7F9FD002059
:10488000FEF7F6FDB720FEF7E7FD0020FEF7F0FD8E
:104890000020FEF7EDFD3F20FEF7EAFD0020FEF7C9
:1048A000E7FD5E20FEF7E4FD0020FEF7E1FD642059
:1048B000FEF7DEFD0020FEF7DBFD8C20FEF7D8FDC5
:1048C0000020FEF7D5FDAC20FEF7D2FD0020FEF75C
:1048D000CFFDDC20FEF7CCFD0020FEF7C9FD7020E7
:1048E000FEF7C6FD0020FEF7C3FD9020FEF7C0FDD9
:1048F0000020FEF7BDFDEB20FEF7BAFD0020FEF71D
:10490000B7FDDC20FEF7B4FD0020FEF7B1FDB820B6
:10491000FEF7A2FD0020FEF7ABFD0020FEF7A8FD8C
:104920000020FEF7A5FD0020FEF7A2FD0020FEF707
:104930009FFD0020FEF79CFD0020FEF799FD002062
:10494000FEF796FDBA20FEF787FD2420FEF790FDC6
:104950000020FEF78DFD0020FEF78AFD0020FEF707
:1049600087FDC120FEF778FD2020FEF781FD0020A5
:10497000FEF77EFD5420FEF77BFD0020FEF778FD5C
:10498000FF20FEF775FD0020FEF772FDC220FEF746
:1049900063FD0A20FEF76CFD0020FEF769FD042090
:1049A000FEF766FD0020FEF763FDC320FEF754FD11
:1049B0003C20FEF75DFD0020FEF75AFD3A20FEF791
:1049C00057FD0020FEF754FD3920FEF751FD002071
:1049D000FEF74EFD3720FEF74BFD0020FEF748FDA9
:1049E0003C20FEF745FD0020FEF742FD3620FEF795
:1049F0003FFD0020FEF73CFD3220FEF739FD002090
:104A0000FEF736FD2F20FEF733FD0020FEF730FDC8
:104A10002C20FEF72DFD0020FEF72AFD2920FEF7B1
:104A200027FD0020FEF724FD2620FEF721FD0020B3
:104A3000FEF71EFD2420FEF71BFD0020FEF718FDEB
:104A40002420FEF715FD0020FEF712FD2320FEF7BF
:104A50000FFD0020FEF70CFD3C20FEF709FD0020B5
:104A6000FEF706FD3620FEF703FD0020FEF700FDF1
:104A70003220FEF7FDFC0020FEF7FAFC2F20FEF7A7
:104A8000F7FC0020FEF7F4FC2C20FEF7F1FC0020E0
:104A9000FEF7EEFC2920FEF7EBFC0020FEF7E8FC19
:104AA0002620FEF7E5FC0020FEF7E2FC2420FEF7BE
:104AB000DFFC0020FEF7DCFC2420FEF7D9FC002000
:104AC000FEF7D6FC2320FEF7D3FC0020FEF7D0FC37
:104AD000C420FEF7C1FC6220FEF7CAFC0020FEF7EE
:104AE000C7FC0520FEF7C4FC0020FEF7C1FC8420B3
:104AF000FEF7BEFC0020FEF7BBFCF020FEF7B8FC82
:104B00000020FEF7B5FC1820FEF7B2FC0020FEF7EF
:104B1000AFFCA420FEF7ACFC0020FEF7A9FC182097
:104B2000FEF7A6FC0020FEF7A3FC5020FEF7A0FC39
:104B30000020FEF79DFC0C20FEF79AFC0020FEF7FB
:104B400097FC1720FEF794FC0020FEF791FC9520BF
:104B5000FEF78EFC0020FEF78BFCF320FEF788FCAE
:104B60000020FEF785FCE620FEF782FC0020FEF721
:104B70007FFCC520FEF770FC3220FEF779FC002098
:104B8000FEF776FC4420FEF773FC0020FEF770FC75
:104B90006520FEF76DFC0020FEF76AFC7620FEF72C
:104BA00067FC0020FEF764FC8820FEF761FC002013
:104BB000FEF75EFCC620FEF74FFC2020FEF758FCF7
:104BC0000020FEF755FC1720FEF752FC0020FEF7F0
:104BD0004FFC0120FEF74CFC0020FEF749FCC720EB
:104BE000FEF73AFC0020FEF743FC0020FEF740FCF5
:104BF0000020FEF73DFC0020FEF73AFCC820FEF73F
:104C00002BFC0020FEF734FC0020FEF731FC0020D6
:104C1000FEF72EFC0020FEF72BFCC920FEF71CFC43
:104C20000020FEF725FC0020FEF722FC0020FEF706
:104C30001FFC0020FEF71CFC0020FEF719FC0020E2
:104C4000FEF716FC0020FEF713FC0020FEF710FC18
:104C50000020FEF70DFC0020FEF70AFC0020FEF706
:104C600007FC0020FEF704FC0020FEF701FC0020FA
:104C7000FEF7FEFB0020FEF7FBFB0020FEF7F8FB33
:104C8000E020FEF7E9FB1620FEF7F2FB0020FEF71E
:104C9000EFFB1C20FEF7ECFB0020FEF7E9FB2120D8
:104CA000FEF7E6FB0020FEF7E3FB3620FEF7E0FB15
:104CB0000020FEF7DDFB4620FEF7DAFB0020FEF7C2
:104CC000D7FB5220FEF7D4FB0020FEF7D1FB642077
:104CD000FEF7CEFB0020FEF7CBFB7A20FEF7C8FBE9
:104CE0000020FEF7C5FB8B20FEF7C2FB0020FEF77D
:104CF000BFFB9920FEF7BCFB0020FEF7B9FBA82004
:104D0000FEF7B6FB0020FEF7B3FBB920FEF7B0FBC1
:104D10000020FEF7ADFBC420FEF7AAFB0020FEF743
:104D2000A7FBCA20FEF7A4FB0020FEF7A1FBD220C0
:104D3000FEF79EFB0020FEF79BFBD920FEF798FBB9
:104D40000020FEF795FBE020FEF792FB0020FEF727
:104D50008FFBF320FEF78CFB0020FEF789FBE120A0
:104D6000FEF77AFB1620FEF783FB0020FEF780FBA0
:104D70001C20FEF77DFB0020FEF77AFB2220FEF7C9
:104D800077FB0020FEF774FB3620FEF771FB002056
:104D9000FEF76EFB4520FEF76BFB0020FEF768FB7D
:104DA0005220FEF765FB0020FEF762FB6420FEF751
:104DB0005FFB0020FEF75CFB7A20FEF759FB00202A
:104DC000FEF756FB8B20FEF753FB0020FEF750FB4F
:104DD0009920FEF74DFB0020FEF74AFBA820FEF7C6
:104DE00047FB0020FEF744FBB920FEF741FB002003
:104DF000FEF73EFBC420FEF73BFB0020FEF738FB2E
:104E0000CA20FEF735FB0020FEF732FBD220FEF76A
:104E10002FFB0020FEF72CFBD820FEF729FB0020FB
:104E2000FEF726FBE020FEF723FB0020FEF720FB29
:104E3000F320FEF71DFB0020FEF71AFBE220FEF731
:104E40000BFB0520FEF714FB0020FEF711FB0B20E7
:104E5000FEF70EFB0020FEF70BFB1B20FEF708FB06
:104E60000020FEF705FB3420FEF702FB0020FEF7D2
:104E7000FFFA4420FEF7FCFA0020FEF7F9FA4F2073
:104E8000FEF7F6FA0020FEF7F3FA6120FEF7F0FADB
:104E90000020FEF7EDFA7920FEF7EAFA0020FEF78F
:104EA000E7FA8820FEF7E4FA0020FEF7E1FA9720FF
:104EB000FEF7DEFA0020FEF7DBFAA620FEF7D8FAAE
:104EC0000020FEF7D5FAB720FEF7D2FA0020FEF751
:104ED000CFFAC220FEF7CCFA0020FEF7C9FAC720AD
:104EE000FEF7C6FA0020FEF7C3FAD120FEF7C0FA9B
:104EF0000020FEF7BDFAD620FEF7BAFA0020FEF732
:104F0000B7FADD20FEF7B4FA0020FEF7B1FAF3207D
:104F1000FEF7AEFA0020FEF7ABFAE320FEF79CFAAC
:104F20000520FEF7A5FA0020FEF7A2FA0A20FEF7F8
:104F30009FFA002000E003E3FEF79AFA1C20FEF738
:104F400097FA0020FEF794FA3320FEF791FA00203A
:104F5000FEF78EFA4420FEF78BFA0020FEF788FA5F
:104F60005020FEF785FA0020FEF782FA6220FEF755
:104F70007FFA0020FEF77CFA7820FEF779FA00200D
:104F8000FEF776FA8820FEF773FA0020FEF770FA33
:104F90009720FEF76DFA0020FEF76AFAA620FEF7CA
:104FA00067FA0020FEF764FAB720FEF761FA0020E6
:104FB000FEF75EFAC220FEF75BFA0020FEF758FA11
:104FC000C720FEF755FA0020FEF752FAD120FEF76F
:104FD0004FFA0020FEF74CFAD520FEF749FA0020E0
:104FE000FEF746FADD20FEF743FA0020FEF740FA0E
:104FF000F320FEF73DFA0020FEF73AFAE420FEF730
:105000002BFA0120FEF734FA0020FEF731FA0120D6
:10501000FEF72EFA0020FEF72BFA0220FEF728FA00
:105020000020FEF725FA2A20FEF722FA0020FEF7DC
:105030001FFA3C20FEF71CFA0020FEF719FA4B205D
:10504000FEF716FA0020FEF713FA5D20FEF710FABD
:105050000020FEF70DFA7420FEF70AFA0020FEF792
:1050600007FA8420FEF704FA0020FEF701FA9320E5
:10507000FEF7FEF90020FEF7FBF9A220FEF7F8F993
:105080000020FEF7F5F9B320FEF7F2F90020FEF755
:10509000EFF9BE20FEF7ECF90020FEF7E9F9C42095
:1050A000FEF7E6F90020FEF7E3F9CD20FEF7E0F980
:1050B0000020FEF7DDF9D320FEF7DAF90020FEF735
:1050C000D7F9DD20FEF7D4F90020FEF7D1F9F3205F
:1050D000FEF7CEF90020FEF7CBF9E520FEF7BCF98C
:1050E0000020FEF7C5F90020FEF7C2F90020FEF708
:1050F000BFF90020FEF7BCF90220FEF7B9F9002045
:10510000FEF7B6F92920FEF7B3F90020FEF7B0F953
:105110003C20FEF7ADF90020FEF7AAF94B20FEF780
:10512000A7F90020FEF7A4F95D20FEF7A1F9002001
:10513000FEF79EF97420FEF79BF90020FEF798F920
:105140008420FEF795F90020FEF792F99320FEF7F0
:105150008FF90020FEF78CF9A220FEF789F90020D4
:10516000FEF786F9B320FEF783F90020FEF780F9F9
:10517000BE20FEF77DF90020FEF77AF9C420FEF785
:1051800077F90020FEF774F9CD20FEF771F90020C1
:10519000FEF76EF9D320FEF76BF90020FEF768F9F1
:1051A000DC20FEF765F90020FEF762F9F320FEF738
:1051B0005FF90020FEF75CF9E620FEF74DF91120BB
:1051C000FEF756F90020FEF753F93420FEF750F9A8
:1051D0000020FEF74DF95620FEF74AF90020FEF7B1
:1051E00047F97620FEF744F90020FEF741F97720D1
:1051F000FEF73EF90020FEF73BF96620FEF738F98E
:105200000020FEF735F98820FEF732F90020FEF77E
:105210002FF99920FEF72CF90020FEF729F9BB2081
:10522000FEF726F90020FEF723F99920FEF720F972
:105230000020FEF71DF96620FEF71AF90020FEF7A0
:1052400017F95520FEF714F90020FEF711F9552043
:10525000FEF70EF90020FEF70BF94520FEF708F9DE
:105260000020FEF705F94320FEF702F90020FEF7C3
:10527000FFF84420FEF7FCF80020FEF7F9F8E720DD
:10528000FEF7EAF83220FEF7F3F80020FEF7F0F818
:105290005520FEF7EDF80020FEF7EAF87620FEF73D
:1052A000E7F80020FEF7E4F86620FEF7E1F80020BA
:1052B000FEF7DEF86720FEF7DBF80020FEF7D8F8EF
:1052C0006720FEF7D5F80020FEF7D2F88720FEF71A
:1052D000CFF80020FEF7CCF89920FEF7C9F800209F
:1052E000FEF7C6F8BB20FEF7C3F80020FEF7C0F8B3
:1052F0009920FEF7BDF80020FEF7BAF87720FEF7F8
:10530000B7F80020FEF7B4F84420FEF7B1F800200B
:10531000FEF7AEF85620FEF7ABF80020FEF7A8F82F
:105320002320FEF7A5F80020FEF7A2F83320FEF7B1
:105330009FF80020FEF79CF84520FEF799F8002022
:10534000FEF796F8E820FEF787F80020FEF790F8C1
:105350000020FEF78DF89920FEF78AF80020FEF76E
:1053600087F88720FEF784F80020FEF781F8882070
:10537000FEF77EF80020FEF77BF87720FEF778F83E
:105380000020FEF775F86620FEF772F80020FEF7A1
:105390006FF88820FEF76CF80020FEF769F8AA2065
:1053A000FEF766F80020FEF763F8BB20FEF760F812
:1053B0000020FEF75DF89920FEF75AF80020FEF76E
:1053C00057F86620FEF754F80020FEF751F85520F4
:1053D000FEF74EF80020FEF74BF85520FEF748F890
:1053E0000020FEF745F84420FEF742F80020FEF7C3
:1053F0003FF84420FEF73CF80020FEF739F855202E
:10540000FEF736F80020FEF733F8E920FEF724F81F
:10541000AA20FEF72DF80020FEF72AF80020FEF75C
:1054200027F80020FEF724F80020FEF715F8AA2040
:10543000FEF71EF8CF20FEF70FF80020FEF718F851
:105440000020FEF715F80020FEF712F80020FEF706
:105450000FF80020FEF70CF80020FEF709F80020F6
:10546000FEF706F80020FEF703F80020FEF700F82C
:105470000020FDF7FDFF0020FDF7FAFF0020FDF7FB
:10548000F7FF0020FDF7F4FF0020FDF7F1FF0020FB
:10549000FDF7EEFF0020FDF7EBFF0020FDF7E8FF32
:1054A000F020FDF7D9FF0020FDF7E2FF5020FDF7C7
:1054B000DFFF0020FDF7DCFF0020FDF7D9FF002013
:1054C000FDF7D6FFF320FDF7C7FF0020FDF7D0FF63
:1054D000F920FDF7C1FF0620FDF7CAFF1020FDF7F8
:1054E000C7FF2920FDF7C4FF0020FDF7C1FF3A20C8
:1054F000FDF7B2FF5520FDF7BBFF1120FDF7ACFF14
:10550000642005F0C3FF2920FDF7A6FF3520FDF735
:10551000A3FF0020FDF7ACFF5120FDF79DFFFF200A
:10552000FDF7A6FF5320FDF797FF2C20FDF7A0FF06
:105530005520FDF791FF8220FDF79AFF2C20FCE318
:10554000A0427DD14FF4704455212046FDF7A6FFBF
:10555000651CAA212846FDF7A1FFA61C5221304652
:10556000FDF79CFFE71C08213846FDF797FF4FF237
:10557000040C01216046FDF791FF0D214FF43040EE
:10558000FDF78CFF0D214BF20100FDF787FF0D2188
:105590004BF20200FDF782FF4FF4364834214046BB
:1055A000FDF77CFF34214BF20160FDF777FF3421DA
:1055B0004BF20260FDF772FF4FF431490D2148466E
:1055C000FDF76CFF4BF2011B0D215846FDF766FFFE
:1055D0000D214BF20210FDF761FF34214FF43740EB
:1055E000FDF75CFF34214BF20170FDF757FF3421CA
:1055F0004BF20270FDF752FF00214FF43240FDF7ED
:105600004DFF00214BF20120FDF748FF00214BF236
:105610000220FDF743FF24214FF43840FDF73EFF01
:1056200024214BF60100FDF739FF24214BF602003F
:10563000FDF734FF01214FF43F40FDF72FFF00E05D
:10564000FEE30F214FF43340FDF728FF0F214BF20B
:105650000130FDF723FF0F214BF20230FDF71EFF53
:1056600034214FF43940FDF719FF34214BF6011076
:10567000FDF714FF34214BF60210FDF70FFF082150
:105680004FF43540FDF70AFF08214BF20150FDF7BA
:1056900005FF08214BF20250FDF700FF03214FF4F4
:1056A0004240FDF7FBFE24214FF43A40FDF7F6FEA1
:1056B00024214BF60120FDF7F1FE24214BF60220B8
:1056C000FDF7ECFE00214FF43C40FDF7E7FE7821AA
:1056D0004BF60140FDF7E2FE00214BF60240FDF7DC
:1056E000DDFE00214FF43D40FDF7D8FE78214BF65A
:1056F0000150FDF7D3FE00214BF60250FDF7CEFE20
:1057000000214FF43E40FDF7C9FE64214BF60160D5
:10571000FDF7C4FE00214FF45140FDF7BFFE3321D9
:105720004DF20110FDF7BAFE00214DF20210FDF717
:10573000B5FE34214DF20310FDF7B0FE00214DF20D
:105740000410FDF7ABFE3A214DF20510FDF7A6FE61
:1057500000214DF20610FDF7A1FE4A214DF207107F
:10576000FDF79CFE00214DF20810FDF797FE5C212D
:105770004DF20910FDF792FE00214DF20A10FDF7DF
:105780008DFE81214DF20B10FDF788FE00214DF2B8
:105790000C10FDF783FEA6214DF20D10FDF77EFEE5
:1057A00000214DF20E10FDF779FEE5214DF20F10AC
:1057B000FDF774FE01214DF21010FDF76FFE13216D
:1057C0004DF21110FDF76AFE01214DF21210FDF7A6
:1057D00065FE54214DF21310FDF760FE01214DF2DC
:1057E0001410FDF75BFE82214DF21510FDF756FEF9
:1057F00001214DF21610FDF751FECA214DF217108E
:10580000FDF74CFE02214DF21810FDF747FE002176
:105810004DF21910FDF742FE02214DF21A10FDF76C
:105820003DFE01214DF21B10FDF738FE02214DF225
:105830001C10FDF733FE34214DF21D10FDF72EFE36
:1058400002214DF21E10FDF729FE67214DF21F10B7
:10585000FDF724FE02214DF22010FDF71FFE8421EA
:105860004DF22110FDF71AFE02214DF22210FDF734
:1058700015FEA4214DF22310FDF710FE02214DF27A
:105880002410FDF70BFEB7214DF22510FDF706FEA3
:1058900002214DF22610FDF701FECF214DF2271017
:1058A000FDF7FCFD02214DF22810FDF7F7FDDE218A
:1058B0004DF22910FDF7F2FD02214DF22A10FDF7FD
:1058C000EDFDF2214DF22B10FDF7E8FD02214DF226
:1058D0002C10FDF7E3FDFE214DF22D10FDF7DEFD4E
:1058E00003214DF22E10FDF7D9FD10214DF22F109E
:1058F000FDF7D4FD03214DF23010FDF7CFFD33212C
:105900004DF23110FDF7CAFD03214DF23210FDF7C3
:10591000C5FD6D214DF23310FDF7C0FD00214FF4A0
:105920005240FDF7BBFD33214DF20120FDF7B6FDDE
:1059300000214DF20220FDF7B1FD34214DF203208C
:10594000FDF7ACFD00214DF20420FDF7A7FD3A2143
:105950004DF20520FDF7A2FD00214DF20620FDF7D6
:105960009DFD4A214DF20720FDF798FD00214DF2E3
:105970000820FDF793FD5C214DF20920FDF78EFD17
:1059800000214DF20A20FDF789FD81214DF20B2007
:10599000FDF784FD00214DF20C20FDF77FFDA621CF
:1059A0004DF20D20FDF77AFD00214DF20E20FDF79E
:1059B00075FDE5214DF20F20FDF770FD01214DF23F
:1059C0001020FDF76BFD13214DF21120FDF766FD50
:1059D00001214DF21220FDF761FD54214DF21320FB
:1059E000FDF75CFD01214DF21420FDF757FD8221EA
:1059F0004DF21520FDF752FD01214DF21620FDF765
:105A00004DFDCA214DF21720FDF748FD02214DF250
:105A10001820FDF743FD00214DF21920FDF73EFD52
:105A200002214DF21A20FDF739FD01214DF21B2014
:105A3000FDF734FD02214DF21C20FDF72FFD34212E
:105A40004DF21D20FDF72AFD02214DF21E20FDF72B
:105A500025FD67214DF21F20FDF720FD02214DF2AB
:105A60002020FDF71BFD84214DF22120FDF716FDBE
:105A700002214DF22220FDF711FDA4214DF2232039
:105A8000FDF70CFD02214DF22420FDF707FDB721A3
:105A90004DF22520FDF702FD02214DF22620FDF7F3
:105AA000FDFCCF214DF22720FDF7F8FC02214DF23D
:105AB0002820FDF7F3FCDE214DF22920FDF7EEFC56
:105AC00002214DF22A20FDF7E9FCF2214DF22B20B4
:105AD000FDF7E4FC02214DF22C20FDF7DFFCFE2156
